:100000000C945D000C9485000C9485000C94850084
:100010000C9485000C9485000C9485000C9485004C
:100020000C9485000C9485000C9485000C9485003C
:100030000C9485000C9485000C9485000C9485002C
:100040000C946B020C9485000C9485000C94850034
:100050000C9485000C9485000C9485000C9485000C
:100060000C9485000C94850000000008000201003B
:100070000003040700000000000000000102040863
:100080001020408001020408102001020408102002
:10009000040404040404040402020202020203032E
:1000A0000303030300000000250028002B000000CC
:1000B0000000240027002A00630211241FBECFEF96
:1000C000D8E0DEBFCDBF11E0A0E0B1E0E2E1F8E0B2
:1000D00002C005900D92AE30B107D9F721E0AEE035
:1000E000B1E001C01D92A632B207E1F710E0CAEB01
:1000F000D0E004C02297FE010E940304C83BD10750
:10010000C9F70E94F1030C9407040C94000060E00E
:100110008FE00E94810360E08EE00E94810361E035
:1001200084E00E94810361E085E00E94810361E038
:1001300086E00E94810361E087E00E94810361E024
:1001400088E00E94810361E080E00E94810361E019
:1001500081E00E94810361E082E00E94810361E00E
:1001600083E00E948103E0911C01F0E0ED5FFE4F0F
:1001700061E080810C94BA03CF93DF93C3E0D1E0B8
:1001800060E089910E94BA0381E0C830D807C1F7C6
:10019000DF91CF9108958FE00E943B03909315016A
:1001A000809314018C52914081399140C8F10E9492
:1001B000BC00809114019091150120911C018D3B90
:1001C00032E0930738F0243010F42F5F09C010920A
:1001D0001C010CC08C32914048F4222321F02150A4
:1001E00020931C0103C084E080931C01E0911C015A
:1001F000F0E0E85FFE4F808190E090931B018093D8
:100200001A0164EF71E080E090E00E94D802E09172
:100210001C01F0E0ED5FFE4F61E080810C94BA03B9
:1002200008952091020180911801909119012223D3
:1002300011F0019601C00197909319018093180164
:100240008091180190911901049724F010921901DE
:1002500010921801809118019091190197FF06C022
:1002600083E090E090931901809318010895CF9254
:10027000DF92EF92FF920F931F93CF93DF937C0156
:10028000162FD42EC22EC0E0D0E0CE15DF050CF024
:1002900048C0E0911801F0911901E130F105A1F099
:1002A00044F4EF2B51F561E0812F0E94BA0360E026
:1002B0001BC0E230F10571F03397F9F460E0812F53
:1002C0000E94BA0361E010C061E0812F0E94BA036E
:1002D00060E005C060E0812F0E94BA0361E08D2DCF
:1002E0000E94BA0361E012C08D2D0E94BA0360E043
:1002F0008C2D0E94BA0361E00DC060E0812F0E9446
:10030000BA0360E08D2D0E94BA0360E08C2D0E943C
:10031000BA0360E0802F0E94BA030E941101219667
:10032000B4CFDF91CF911F910F91FF90EF90DF90AD
:10033000CF9008950F931F931092020103E010E0F5
:1003400022E030E041E050E060E070E081E090E0E9
:100350000E94370160911A0170911B01882777FD77
:100360008095982F1F910F910C94D8020F931F9393
:1003700081E08093020103E010E022E030E041E000
:1003800050E060E070E081E090E00E943701609111
:100390001A0170911B01882777FD8095982F1F9176
:1003A0000F910C94D8020E94CB008EE00E943B0378
:1003B0009093170180931601893C22E0920748F040
:1003C000109213011092120110920101109200017B
:1003D0000AC0883321E0920730F422E030E0309305
:1003E000130120931201895391408F38914060F49A
:1003F0008091000190910101892B31F481E090E01E
:100400009093130180931201809112019091130136
:100410008130910551F08230910509F44BC0892B50
:1004200009F050C00E949A0147C080911A01909132
:100430001B01909311018093100180910C0190E0B9
:1004400090931B0180931A0168EC70E080E090E0CB
:100450000E94D80210920F0110920E0180910E019D
:1004600090910F018639910564F40E94B601809144
:100470000E0190910F01019690930F0180930E0150
:10048000EDCF64E670E080E090E00E94D80283E067
:1004900090E0909313018093120190930101809357
:1004A0000001809110019091110190931B018093A4
:1004B0001A0108950E94B60183E090E09093130121
:1004C0008093120108958091080190E090931B01A0
:1004D00080931A0108951F920F920FB60F92112464
:1004E0002F933F938F939F93AF93BF9380911E0160
:1004F00090911F01A0912001B091210130911D0127
:1005000023E0230F2D3720F40196A11DB11D05C056
:1005100026E8230F0296A11DB11D20931D01809393
:100520001E0190931F01A0932001B093210180919F
:10053000220190912301A0912401B09125010196FF
:10054000A11DB11D8093220190932301A09324014A
:10055000B0932501BF91AF919F918F913F912F91C2
:100560000F900FBE0F901F9018953FB7F894809191
:10057000220190912301A0912401B091250126B57B
:10058000A89B05C02F3F19F00196A11DB11D3FBFCB
:100590006627782F892F9A2F620F711D811D911D5B
:1005A00042E0660F771F881F991F4A95D1F708957B
:1005B000CF92DF92EF92FF92CF93DF936B017C019A
:1005C0000E94B502EB01C114D104E104F10489F0E9
:1005D0000E9400040E94B5026C1B7D0B683E7340B4
:1005E00090F381E0C81AD108E108F108C851DC4F46
:1005F000EACFDF91CF91FF90EF90DF90CF900895F9
:10060000789484B5826084BD84B5816084BD85B5ED
:10061000826085BD85B5816085BDEEE6F0E08081B4
:1006200081608083E1E8F0E01082808182608083D5
:10063000808181608083E0E8F0E080818160808358
:10064000E1EBF0E0808184608083E0EBF0E080818A
:1006500081608083EAE7F0E080818460808380812C
:1006600082608083808181608083808180688083D4
:100670001092C10008958E3008F08E50877020913E
:100680000D0190E4299F90011124822B80937C001E
:1006900080917A00806480937A0080917A0086FD50
:1006A000FCCF809178002091790090E0922B089502
:1006B000833081F028F4813099F08230A1F00895E0
:1006C0008730A9F08830B9F08430D1F4809180006F
:1006D0008F7D03C0809180008F7780938000089584
:1006E00084B58F7702C084B58F7D84BD08958091D5
:1006F000B0008F7703C08091B0008F7D8093B000F1
:100700000895CF93DF9390E0FC01E458FF4F2491CC
:10071000FC01E057FF4F8491882349F190E0880F56
:10072000991FFC01E255FF4FA591B4918C559F4F45
:10073000FC01C591D4919FB7611108C0F8948C91C8
:10074000209582238C93888182230AC0623051F4E1
:10075000F8948C91322F309583238C938881822B4F
:10076000888304C0F8948C91822B8C939FBFDF9177
:10077000CF9108950F931F93CF93DF931F92CDB71F
:10078000DEB7282F30E0F901E859FF4F8491F901D5
:10079000E458FF4F1491F901E057FF4F04910023F3
:1007A000C9F0882321F069830E9458036981E02FF2
:1007B000F0E0EE0FFF1FEC55FF4FA591B4919FB7EE
:1007C000F8948C91611103C01095812301C0812B95
:1007D0008C939FBF0F90DF91CF911F910F91089540
:1007E00008950E9400030E94F0030E948700C0E069
:1007F000D0E00E94D3012097E1F30E940000F9CFDE
:100800000895EE0FFF1F0590F491E02D0994F894E0
:02081000FFCF18
:0E0812000300010405060708140A060402018B
:00000001FF
